{
  "data": {
    "bytecode": {
      "linkReferences": {},
      "object": "608060405234801561000f575f80fd5b50610bbe8061001d5f395ff3fe608060405234801561000f575f80fd5b5060043610610034575f3560e01c8063ac9e576014610038578063ed0f2e7514610054575b5f80fd5b610052600480360381019061004d9190610594565b610087565b005b61006e60048036038101906100699190610638565b610230565b60405161007e9493929190610750565b60405180910390f35b5f60405180608001604052805f8551116100d6576040518060400160405280600281526020017f4e410000000000000000000000000000000000000000000000000000000000008152506100d8565b845b81526020015f845111610120576040518060400160405280600281526020017f4e41000000000000000000000000000000000000000000000000000000000000815250610122565b835b81526020013373ffffffffffffffffffffffffffffffffffffffff168152602001428152509050805f8560405161015991906107db565b90815260200160405180910390205f820151815f01908161017a91906109eb565b50602082015181600101908161019091906109eb565b506040820151816002015f6101000a81548173ffffffffffffffffffffffffffffffffffffffff021916908373ffffffffffffffffffffffffffffffffffffffff160217905550606082015181600301559050507ff59c3537bf3ef87bf1cb6c315754ccde7541020131a9a6faedec6ee252d3238384825f015183602001513342604051610222959493929190610aba565b60405180910390a150505050565b6060805f805f808660405161024591906107db565b90815260200160405180910390206040518060800160405290815f8201805461026d9061081e565b80601f01602080910402602001604051908101604052809291908181526020018280546102999061081e565b80156102e45780601f106102bb576101008083540402835291602001916102e4565b820191905f5260205f20905b8154815290600101906020018083116102c757829003601f168201915b505050505081526020016001820180546102fd9061081e565b80601f01602080910402602001604051908101604052809291908181526020018280546103299061081e565b80156103745780601f1061034b57610100808354040283529160200191610374565b820191905f5260205f20905b81548152906001019060200180831161035757829003601f168201915b50505050508152602001600282015f9054906101000a900473ffffffffffffffffffffffffffffffffffffffff1673ffffffffffffffffffffffffffffffffffffffff1673ffffffffffffffffffffffffffffffffffffffff16815260200160038201548152505090505f815f01515111610424576040517f08c379a000000000000000000000000000000000000000000000000000000000815260040161041b90610b6a565b60405180910390fd5b805f01518160200151826040015183606001519450945094509450509193509193565b5f604051905090565b5f80fd5b5f80fd5b5f80fd5b5f80fd5b5f601f19601f8301169050919050565b7f4e487b71000000000000000000000000000000000000000000000000000000005f52604160045260245ffd5b6104a682610460565b810181811067ffffffffffffffff821117156104c5576104c4610470565b5b80604052505050565b5f6104d7610447565b90506104e3828261049d565b919050565b5f67ffffffffffffffff82111561050257610501610470565b5b61050b82610460565b9050602081019050919050565b828183375f83830152505050565b5f610538610533846104e8565b6104ce565b9050828152602081018484840111156105545761055361045c565b5b61055f848285610518565b509392505050565b5f82601f83011261057b5761057a610458565b5b813561058b848260208601610526565b91505092915050565b5f805f606084860312156105ab576105aa610450565b5b5f84013567ffffffffffffffff8111156105c8576105c7610454565b5b6105d486828701610567565b935050602084013567ffffffffffffffff8111156105f5576105f4610454565b5b61060186828701610567565b925050604084013567ffffffffffffffff81111561062257610621610454565b5b61062e86828701610567565b9150509250925092565b5f6020828403121561064d5761064c610450565b5b5f82013567ffffffffffffffff81111561066a57610669610454565b5b61067684828501610567565b91505092915050565b5f81519050919050565b5f82825260208201905092915050565b5f5b838110156106b657808201518184015260208101905061069b565b5f8484015250505050565b5f6106cb8261067f565b6106d58185610689565b93506106e5818560208601610699565b6106ee81610460565b840191505092915050565b5f73ffffffffffffffffffffffffffffffffffffffff82169050919050565b5f610722826106f9565b9050919050565b61073281610718565b82525050565b5f819050919050565b61074a81610738565b82525050565b5f6080820190508181035f83015261076881876106c1565b9050818103602083015261077c81866106c1565b905061078b6040830185610729565b6107986060830184610741565b95945050505050565b5f81905092915050565b5f6107b58261067f565b6107bf81856107a1565b93506107cf818560208601610699565b80840191505092915050565b5f6107e682846107ab565b915081905092915050565b7f4e487b71000000000000000000000000000000000000000000000000000000005f52602260045260245ffd5b5f600282049050600182168061083557607f821691505b602082108103610848576108476107f1565b5b50919050565b5f819050815f5260205f209050919050565b5f6020601f8301049050919050565b5f82821b905092915050565b5f600883026108aa7fffffffffffffffffffffffffffffffffffffffffffffffffffffffffffffffff8261086f565b6108b4868361086f565b95508019841693508086168417925050509392505050565b5f819050919050565b5f6108ef6108ea6108e584610738565b6108cc565b610738565b9050919050565b5f819050919050565b610908836108d5565b61091c610914826108f6565b84845461087b565b825550505050565b5f90565b610930610924565b61093b8184846108ff565b505050565b5b8181101561095e576109535f82610928565b600181019050610941565b5050565b601f8211156109a3576109748161084e565b61097d84610860565b8101602085101561098c578190505b6109a061099885610860565b830182610940565b50505b505050565b5f82821c905092915050565b5f6109c35f19846008026109a8565b1980831691505092915050565b5f6109db83836109b4565b9150826002028217905092915050565b6109f48261067f565b67ffffffffffffffff811115610a0d57610a0c610470565b5b610a17825461081e565b610a22828285610962565b5f60209050601f831160018114610a53575f8415610a41578287015190505b610a4b85826109d0565b865550610ab2565b601f198416610a618661084e565b5f5b82811015610a8857848901518255600182019150602085019450602081019050610a63565b86831015610aa55784890151610aa1601f8916826109b4565b8355505b6001600288020188555050505b505050505050565b5f60a0820190508181035f830152610ad281886106c1565b90508181036020830152610ae681876106c1565b90508181036040830152610afa81866106c1565b9050610b096060830185610729565b610b166080830184610741565b9695505050505050565b7f4365727469666963617465206e6f7420666f756e6400000000000000000000005f82015250565b5f610b54601583610689565b9150610b5f82610b20565b602082019050919050565b5f6020820190508181035f830152610b8181610b48565b905091905056fea2646970667358221220665d656b0e008fe31945116838add3772db69104ae1c24496d8683142936572c64736f6c63430008180033",
      "opcodes": "PUSH1 0x80 PUSH1 0x40 MSTORE CALLVALUE DUP1 ISZERO PUSH2 0xF JUMPI PUSH0 DUP1 REVERT JUMPDEST POP PUSH2 0xBBE DUP1 PUSH2 0x1D PUSH0 CODECOPY PUSH0 RETURN INVALID PUSH1 0x80 PUSH1 0x40 MSTORE CALLVALUE DUP1 ISZERO PUSH2 0xF JUMPI PUSH0 DUP1 REVERT JUMPDEST POP PUSH1 0x4 CALLDATASIZE LT PUSH2 0x34 JUMPI PUSH0 CALLDATALOAD PUSH1 0xE0 SHR DUP1 PUSH4 0xAC9E5760 EQ PUSH2 0x38 JUMPI DUP1 PUSH4 0xED0F2E75 EQ PUSH2 0x54 JUMPI JUMPDEST PUSH0 DUP1 REVERT JUMPDEST PUSH2 0x52 PUSH1 0x4 DUP1 CALLDATASIZE SUB DUP2 ADD SWAP1 PUSH2 0x4D SWAP2 SWAP1 PUSH2 0x594 JUMP JUMPDEST PUSH2 0x87 JUMP JUMPDEST STOP JUMPDEST PUSH2 0x6E PUSH1 0x4 DUP1 CALLDATASIZE SUB DUP2 ADD SWAP1 PUSH2 0x69 SWAP2 SWAP1 PUSH2 0x638 JUMP JUMPDEST PUSH2 0x230 JUMP JUMPDEST PUSH1 0x40 MLOAD PUSH2 0x7E SWAP5 SWAP4 SWAP3 SWAP2 SWAP1 PUSH2 0x750 JUMP JUMPDEST PUSH1 0x40 MLOAD DUP1 SWAP2 SUB SWAP1 RETURN JUMPDEST PUSH0 PUSH1 0x40 MLOAD DUP1 PUSH1 0x80 ADD PUSH1 0x40 MSTORE DUP1 PUSH0 DUP6 MLOAD GT PUSH2 0xD6 JUMPI PUSH1 0x40 MLOAD DUP1 PUSH1 0x40 ADD PUSH1 0x40 MSTORE DUP1 PUSH1 0x2 DUP2 MSTORE PUSH1 0x20 ADD PUSH32 0x4E41000000000000000000000000000000000000000000000000000000000000 DUP2 MSTORE POP PUSH2 0xD8 JUMP JUMPDEST DUP5 JUMPDEST DUP2 MSTORE PUSH1 0x20 ADD PUSH0 DUP5 MLOAD GT PUSH2 0x120 JUMPI PUSH1 0x40 MLOAD DUP1 PUSH1 0x40 ADD PUSH1 0x40 MSTORE DUP1 PUSH1 0x2 DUP2 MSTORE PUSH1 0x20 ADD PUSH32 0x4E41000000000000000000000000000000000000000000000000000000000000 DUP2 MSTORE POP PUSH2 0x122 JUMP JUMPDEST DUP4 JUMPDEST DUP2 MSTORE PUSH1 0x20 ADD CALLER PUSH20 0xFFFFFFFFFFFFFFFFFFFFFFFFFFFFFFFFFFFFFFFF AND DUP2 MSTORE PUSH1 0x20 ADD TIMESTAMP DUP2 MSTORE POP SWAP1 POP DUP1 PUSH0 DUP6 PUSH1 0x40 MLOAD PUSH2 0x159 SWAP2 SWAP1 PUSH2 0x7DB JUMP JUMPDEST SWAP1 DUP2 MSTORE PUSH1 0x20 ADD PUSH1 0x40 MLOAD DUP1 SWAP2 SUB SWAP1 KECCAK256 PUSH0 DUP3 ADD MLOAD DUP2 PUSH0 ADD SWAP1 DUP2 PUSH2 0x17A SWAP2 SWAP1 PUSH2 0x9EB JUMP JUMPDEST POP PUSH1 0x20 DUP3 ADD MLOAD DUP2 PUSH1 0x1 ADD SWAP1 DUP2 PUSH2 0x190 SWAP2 SWAP1 PUSH2 0x9EB JUMP JUMPDEST POP PUSH1 0x40 DUP3 ADD MLOAD DUP2 PUSH1 0x2 ADD PUSH0 PUSH2 0x100 EXP DUP2 SLOAD DUP2 PUSH20 0xFFFFFFFFFFFFFFFFFFFFFFFFFFFFFFFFFFFFFFFF MUL NOT AND SWAP1 DUP4 PUSH20 0xFFFFFFFFFFFFFFFFFFFFFFFFFFFFFFFFFFFFFFFF AND MUL OR SWAP1 SSTORE POP PUSH1 0x60 DUP3 ADD MLOAD DUP2 PUSH1 0x3 ADD SSTORE SWAP1 POP POP PUSH32 0xF59C3537BF3EF87BF1CB6C315754CCDE7541020131A9A6FAEDEC6EE252D32383 DUP5 DUP3 PUSH0 ADD MLOAD DUP4 PUSH1 0x20 ADD MLOAD CALLER TIMESTAMP PUSH1 0x40 MLOAD PUSH2 0x222 SWAP6 SWAP5 SWAP4 SWAP3 SWAP2 SWAP1 PUSH2 0xABA JUMP JUMPDEST PUSH1 0x40 MLOAD DUP1 SWAP2 SUB SWAP1 LOG1 POP POP POP POP JUMP JUMPDEST PUSH1 0x60 DUP1 PUSH0 DUP1 PUSH0 DUP1 DUP7 PUSH1 0x40 MLOAD PUSH2 0x245 SWAP2 SWAP1 PUSH2 0x7DB JUMP JUMPDEST SWAP1 DUP2 MSTORE PUSH1 0x20 ADD PUSH1 0x40 MLOAD DUP1 SWAP2 SUB SWAP1 KECCAK256 PUSH1 0x40 MLOAD DUP1 PUSH1 0x80 ADD PUSH1 0x40 MSTORE SWAP1 DUP2 PUSH0 DUP3 ADD DUP1 SLOAD PUSH2 0x26D SWAP1 PUSH2 0x81E JUMP JUMPDEST DUP1 PUSH1 0x1F ADD PUSH1 0x20 DUP1 SWAP2 DIV MUL PUSH1 0x20 ADD PUSH1 0x40 MLOAD SWAP1 DUP2 ADD PUSH1 0x40 MSTORE DUP1 SWAP3 SWAP2 SWAP1 DUP2 DUP2 MSTORE PUSH1 0x20 ADD DUP3 DUP1 SLOAD PUSH2 0x299 SWAP1 PUSH2 0x81E JUMP JUMPDEST DUP1 ISZERO PUSH2 0x2E4 JUMPI DUP1 PUSH1 0x1F LT PUSH2 0x2BB JUMPI PUSH2 0x100 DUP1 DUP4 SLOAD DIV MUL DUP4 MSTORE SWAP2 PUSH1 0x20 ADD SWAP2 PUSH2 0x2E4 JUMP JUMPDEST DUP3 ADD SWAP2 SWAP1 PUSH0 MSTORE PUSH1 0x20 PUSH0 KECCAK256 SWAP1 JUMPDEST DUP2 SLOAD DUP2 MSTORE SWAP1 PUSH1 0x1 ADD SWAP1 PUSH1 0x20 ADD DUP1 DUP4 GT PUSH2 0x2C7 JUMPI DUP3 SWAP1 SUB PUSH1 0x1F AND DUP3 ADD SWAP2 JUMPDEST POP POP POP POP POP DUP2 MSTORE PUSH1 0x20 ADD PUSH1 0x1 DUP3 ADD DUP1 SLOAD PUSH2 0x2FD SWAP1 PUSH2 0x81E JUMP JUMPDEST DUP1 PUSH1 0x1F ADD PUSH1 0x20 DUP1 SWAP2 DIV MUL PUSH1 0x20 ADD PUSH1 0x40 MLOAD SWAP1 DUP2 ADD PUSH1 0x40 MSTORE DUP1 SWAP3 SWAP2 SWAP1 DUP2 DUP2 MSTORE PUSH1 0x20 ADD DUP3 DUP1 SLOAD PUSH2 0x329 SWAP1 PUSH2 0x81E JUMP JUMPDEST DUP1 ISZERO PUSH2 0x374 JUMPI DUP1 PUSH1 0x1F LT PUSH2 0x34B JUMPI PUSH2 0x100 DUP1 DUP4 SLOAD DIV MUL DUP4 MSTORE SWAP2 PUSH1 0x20 ADD SWAP2 PUSH2 0x374 JUMP JUMPDEST DUP3 ADD SWAP2 SWAP1 PUSH0 MSTORE PUSH1 0x20 PUSH0 KECCAK256 SWAP1 JUMPDEST DUP2 SLOAD DUP2 MSTORE SWAP1 PUSH1 0x1 ADD SWAP1 PUSH1 0x20 ADD DUP1 DUP4 GT PUSH2 0x357 JUMPI DUP3 SWAP1 SUB PUSH1 0x1F AND DUP3 ADD SWAP2 JUMPDEST POP POP POP POP POP DUP2 MSTORE PUSH1 0x20 ADD PUSH1 0x2 DUP3 ADD PUSH0 SWAP1 SLOAD SWAP1 PUSH2 0x100 EXP SWAP1 DIV PUSH20 0xFFFFFFFFFFFFFFFFFFFFFFFFFFFFFFFFFFFFFFFF AND PUSH20 0xFFFFFFFFFFFFFFFFFFFFFFFFFFFFFFFFFFFFFFFF AND PUSH20 0xFFFFFFFFFFFFFFFFFFFFFFFFFFFFFFFFFFFFFFFF AND DUP2 MSTORE PUSH1 0x20 ADD PUSH1 0x3 DUP3 ADD SLOAD DUP2 MSTORE POP POP SWAP1 POP PUSH0 DUP2 PUSH0 ADD MLOAD MLOAD GT PUSH2 0x424 JUMPI PUSH1 0x40 MLOAD PUSH32 0x8C379A000000000000000000000000000000000000000000000000000000000 DUP2 MSTORE PUSH1 0x4 ADD PUSH2 0x41B SWAP1 PUSH2 0xB6A JUMP JUMPDEST PUSH1 0x40 MLOAD DUP1 SWAP2 SUB SWAP1 REVERT JUMPDEST DUP1 PUSH0 ADD MLOAD DUP2 PUSH1 0x20 ADD MLOAD DUP3 PUSH1 0x40 ADD MLOAD DUP4 PUSH1 0x60 ADD MLOAD SWAP5 POP SWAP5 POP SWAP5 POP SWAP5 POP POP SWAP2 SWAP4 POP SWAP2 SWAP4 JUMP JUMPDEST PUSH0 PUSH1 0x40 MLOAD SWAP1 POP SWAP1 JUMP JUMPDEST PUSH0 DUP1 REVERT JUMPDEST PUSH0 DUP1 REVERT JUMPDEST PUSH0 DUP1 REVERT JUMPDEST PUSH0 DUP1 REVERT JUMPDEST PUSH0 PUSH1 0x1F NOT PUSH1 0x1F DUP4 ADD AND SWAP1 POP SWAP2 SWAP1 POP JUMP JUMPDEST PUSH32 0x4E487B7100000000000000000000000000000000000000000000000000000000 PUSH0 MSTORE PUSH1 0x41 PUSH1 0x4 MSTORE PUSH1 0x24 PUSH0 REVERT JUMPDEST PUSH2 0x4A6 DUP3 PUSH2 0x460 JUMP JUMPDEST DUP2 ADD DUP2 DUP2 LT PUSH8 0xFFFFFFFFFFFFFFFF DUP3 GT OR ISZERO PUSH2 0x4C5 JUMPI PUSH2 0x4C4 PUSH2 0x470 JUMP JUMPDEST JUMPDEST DUP1 PUSH1 0x40 MSTORE POP POP POP JUMP JUMPDEST PUSH0 PUSH2 0x4D7 PUSH2 0x447 JUMP JUMPDEST SWAP1 POP PUSH2 0x4E3 DUP3 DUP3 PUSH2 0x49D JUMP JUMPDEST SWAP2 SWAP1 POP JUMP JUMPDEST PUSH0 PUSH8 0xFFFFFFFFFFFFFFFF DUP3 GT ISZERO PUSH2 0x502 JUMPI PUSH2 0x501 PUSH2 0x470 JUMP JUMPDEST JUMPDEST PUSH2 0x50B DUP3 PUSH2 0x460 JUMP JUMPDEST SWAP1 POP PUSH1 0x20 DUP2 ADD SWAP1 POP SWAP2 SWAP1 POP JUMP JUMPDEST DUP3 DUP2 DUP4 CALLDATACOPY PUSH0 DUP4 DUP4 ADD MSTORE POP POP POP JUMP JUMPDEST PUSH0 PUSH2 0x538 PUSH2 0x533 DUP5 PUSH2 0x4E8 JUMP JUMPDEST PUSH2 0x4CE JUMP JUMPDEST SWAP1 POP DUP3 DUP2 MSTORE PUSH1 0x20 DUP2 ADD DUP5 DUP5 DUP5 ADD GT ISZERO PUSH2 0x554 JUMPI PUSH2 0x553 PUSH2 0x45C JUMP JUMPDEST JUMPDEST PUSH2 0x55F DUP5 DUP3 DUP6 PUSH2 0x518 JUMP JUMPDEST POP SWAP4 SWAP3 POP POP POP JUMP JUMPDEST PUSH0 DUP3 PUSH1 0x1F DUP4 ADD SLT PUSH2 0x57B JUMPI PUSH2 0x57A PUSH2 0x458 JUMP JUMPDEST JUMPDEST DUP2 CALLDATALOAD PUSH2 0x58B DUP5 DUP3 PUSH1 0x20 DUP7 ADD PUSH2 0x526 JUMP JUMPDEST SWAP2 POP POP SWAP3 SWAP2 POP POP JUMP JUMPDEST PUSH0 DUP1 PUSH0 PUSH1 0x60 DUP5 DUP7 SUB SLT ISZERO PUSH2 0x5AB JUMPI PUSH2 0x5AA PUSH2 0x450 JUMP JUMPDEST JUMPDEST PUSH0 DUP5 ADD CALLDATALOAD PUSH8 0xFFFFFFFFFFFFFFFF DUP2 GT ISZERO PUSH2 0x5C8 JUMPI PUSH2 0x5C7 PUSH2 0x454 JUMP JUMPDEST JUMPDEST PUSH2 0x5D4 DUP7 DUP3 DUP8 ADD PUSH2 0x567 JUMP JUMPDEST SWAP4 POP POP PUSH1 0x20 DUP5 ADD CALLDATALOAD PUSH8 0xFFFFFFFFFFFFFFFF DUP2 GT ISZERO PUSH2 0x5F5 JUMPI PUSH2 0x5F4 PUSH2 0x454 JUMP JUMPDEST JUMPDEST PUSH2 0x601 DUP7 DUP3 DUP8 ADD PUSH2 0x567 JUMP JUMPDEST SWAP3 POP POP PUSH1 0x40 DUP5 ADD CALLDATALOAD PUSH8 0xFFFFFFFFFFFFFFFF DUP2 GT ISZERO PUSH2 0x622 JUMPI PUSH2 0x621 PUSH2 0x454 JUMP JUMPDEST JUMPDEST PUSH2 0x62E DUP7 DUP3 DUP8 ADD PUSH2 0x567 JUMP JUMPDEST SWAP2 POP POP SWAP3 POP SWAP3 POP SWAP3 JUMP JUMPDEST PUSH0 PUSH1 0x20 DUP3 DUP5 SUB SLT ISZERO PUSH2 0x64D JUMPI PUSH2 0x64C PUSH2 0x450 JUMP JUMPDEST JUMPDEST PUSH0 DUP3 ADD CALLDATALOAD PUSH8 0xFFFFFFFFFFFFFFFF DUP2 GT ISZERO PUSH2 0x66A JUMPI PUSH2 0x669 PUSH2 0x454 JUMP JUMPDEST JUMPDEST PUSH2 0x676 DUP5 DUP3 DUP6 ADD PUSH2 0x567 JUMP JUMPDEST SWAP2 POP POP SWAP3 SWAP2 POP POP JUMP JUMPDEST PUSH0 DUP2 MLOAD SWAP1 POP SWAP2 SWAP1 POP JUMP JUMPDEST PUSH0 DUP3 DUP3 MSTORE PUSH1 0x20 DUP3 ADD SWAP1 POP SWAP3 SWAP2 POP POP JUMP JUMPDEST PUSH0 JUMPDEST DUP4 DUP2 LT ISZERO PUSH2 0x6B6 JUMPI DUP1 DUP3 ADD MLOAD DUP2 DUP5 ADD MSTORE PUSH1 0x20 DUP2 ADD SWAP1 POP PUSH2 0x69B JUMP JUMPDEST PUSH0 DUP5 DUP5 ADD MSTORE POP POP POP POP JUMP JUMPDEST PUSH0 PUSH2 0x6CB DUP3 PUSH2 0x67F JUMP JUMPDEST PUSH2 0x6D5 DUP2 DUP6 PUSH2 0x689 JUMP JUMPDEST SWAP4 POP PUSH2 0x6E5 DUP2 DUP6 PUSH1 0x20 DUP7 ADD PUSH2 0x699 JUMP JUMPDEST PUSH2 0x6EE DUP2 PUSH2 0x460 JUMP JUMPDEST DUP5 ADD SWAP2 POP POP SWAP3 SWAP2 POP POP JUMP JUMPDEST PUSH0 PUSH20 0xFFFFFFFFFFFFFFFFFFFFFFFFFFFFFFFFFFFFFFFF DUP3 AND SWAP1 POP SWAP2 SWAP1 POP JUMP JUMPDEST PUSH0 PUSH2 0x722 DUP3 PUSH2 0x6F9 JUMP JUMPDEST SWAP1 POP SWAP2 SWAP1 POP JUMP JUMPDEST PUSH2 0x732 DUP2 PUSH2 0x718 JUMP JUMPDEST DUP3 MSTORE POP POP JUMP JUMPDEST PUSH0 DUP2 SWAP1 POP SWAP2 SWAP1 POP JUMP JUMPDEST PUSH2 0x74A DUP2 PUSH2 0x738 JUMP JUMPDEST DUP3 MSTORE POP POP JUMP JUMPDEST PUSH0 PUSH1 0x80 DUP3 ADD SWAP1 POP DUP2 DUP2 SUB PUSH0 DUP4 ADD MSTORE PUSH2 0x768 DUP2 DUP8 PUSH2 0x6C1 JUMP JUMPDEST SWAP1 POP DUP2 DUP2 SUB PUSH1 0x20 DUP4 ADD MSTORE PUSH2 0x77C DUP2 DUP7 PUSH2 0x6C1 JUMP JUMPDEST SWAP1 POP PUSH2 0x78B PUSH1 0x40 DUP4 ADD DUP6 PUSH2 0x729 JUMP JUMPDEST PUSH2 0x798 PUSH1 0x60 DUP4 ADD DUP5 PUSH2 0x741 JUMP JUMPDEST SWAP6 SWAP5 POP POP POP POP POP JUMP JUMPDEST PUSH0 DUP2 SWAP1 POP SWAP3 SWAP2 POP POP JUMP JUMPDEST PUSH0 PUSH2 0x7B5 DUP3 PUSH2 0x67F JUMP JUMPDEST PUSH2 0x7BF DUP2 DUP6 PUSH2 0x7A1 JUMP JUMPDEST SWAP4 POP PUSH2 0x7CF DUP2 DUP6 PUSH1 0x20 DUP7 ADD PUSH2 0x699 JUMP JUMPDEST DUP1 DUP5 ADD SWAP2 POP POP SWAP3 SWAP2 POP POP JUMP JUMPDEST PUSH0 PUSH2 0x7E6 DUP3 DUP5 PUSH2 0x7AB JUMP JUMPDEST SWAP2 POP DUP2 SWAP1 POP SWAP3 SWAP2 POP POP JUMP JUMPDEST PUSH32 0x4E487B7100000000000000000000000000000000000000000000000000000000 PUSH0 MSTORE PUSH1 0x22 PUSH1 0x4 MSTORE PUSH1 0x24 PUSH0 REVERT JUMPDEST PUSH0 PUSH1 0x2 DUP3 DIV SWAP1 POP PUSH1 0x1 DUP3 AND DUP1 PUSH2 0x835 JUMPI PUSH1 0x7F DUP3 AND SWAP2 POP JUMPDEST PUSH1 0x20 DUP3 LT DUP2 SUB PUSH2 0x848 JUMPI PUSH2 0x847 PUSH2 0x7F1 JUMP JUMPDEST JUMPDEST POP SWAP2 SWAP1 POP JUMP JUMPDEST PUSH0 DUP2 SWAP1 POP DUP2 PUSH0 MSTORE PUSH1 0x20 PUSH0 KECCAK256 SWAP1 POP SWAP2 SWAP1 POP JUMP JUMPDEST PUSH0 PUSH1 0x20 PUSH1 0x1F DUP4 ADD DIV SWAP1 POP SWAP2 SWAP1 POP JUMP JUMPDEST PUSH0 DUP3 DUP3 SHL SWAP1 POP SWAP3 SWAP2 POP POP JUMP JUMPDEST PUSH0 PUSH1 0x8 DUP4 MUL PUSH2 0x8AA PUSH32 0xFFFFFFFFFFFFFFFFFFFFFFFFFFFFFFFFFFFFFFFFFFFFFFFFFFFFFFFFFFFFFFFF DUP3 PUSH2 0x86F JUMP JUMPDEST PUSH2 0x8B4 DUP7 DUP4 PUSH2 0x86F JUMP JUMPDEST SWAP6 POP DUP1 NOT DUP5 AND SWAP4 POP DUP1 DUP7 AND DUP5 OR SWAP3 POP POP POP SWAP4 SWAP3 POP POP POP JUMP JUMPDEST PUSH0 DUP2 SWAP1 POP SWAP2 SWAP1 POP JUMP JUMPDEST PUSH0 PUSH2 0x8EF PUSH2 0x8EA PUSH2 0x8E5 DUP5 PUSH2 0x738 JUMP JUMPDEST PUSH2 0x8CC JUMP JUMPDEST PUSH2 0x738 JUMP JUMPDEST SWAP1 POP SWAP2 SWAP1 POP JUMP JUMPDEST PUSH0 DUP2 SWAP1 POP SWAP2 SWAP1 POP JUMP JUMPDEST PUSH2 0x908 DUP4 PUSH2 0x8D5 JUMP JUMPDEST PUSH2 0x91C PUSH2 0x914 DUP3 PUSH2 0x8F6 JUMP JUMPDEST DUP5 DUP5 SLOAD PUSH2 0x87B JUMP JUMPDEST DUP3 SSTORE POP POP POP POP JUMP JUMPDEST PUSH0 SWAP1 JUMP JUMPDEST PUSH2 0x930 PUSH2 0x924 JUMP JUMPDEST PUSH2 0x93B DUP2 DUP5 DUP5 PUSH2 0x8FF JUMP JUMPDEST POP POP POP JUMP JUMPDEST JUMPDEST DUP2 DUP2 LT ISZERO PUSH2 0x95E JUMPI PUSH2 0x953 PUSH0 DUP3 PUSH2 0x928 JUMP JUMPDEST PUSH1 0x1 DUP2 ADD SWAP1 POP PUSH2 0x941 JUMP JUMPDEST POP POP JUMP JUMPDEST PUSH1 0x1F DUP3 GT ISZERO PUSH2 0x9A3 JUMPI PUSH2 0x974 DUP2 PUSH2 0x84E JUMP JUMPDEST PUSH2 0x97D DUP5 PUSH2 0x860 JUMP JUMPDEST DUP2 ADD PUSH1 0x20 DUP6 LT ISZERO PUSH2 0x98C JUMPI DUP2 SWAP1 POP JUMPDEST PUSH2 0x9A0 PUSH2 0x998 DUP6 PUSH2 0x860 JUMP JUMPDEST DUP4 ADD DUP3 PUSH2 0x940 JUMP JUMPDEST POP POP JUMPDEST POP POP POP JUMP JUMPDEST PUSH0 DUP3 DUP3 SHR SWAP1 POP SWAP3 SWAP2 POP POP JUMP JUMPDEST PUSH0 PUSH2 0x9C3 PUSH0 NOT DUP5 PUSH1 0x8 MUL PUSH2 0x9A8 JUMP JUMPDEST NOT DUP1 DUP4 AND SWAP2 POP POP SWAP3 SWAP2 POP POP JUMP JUMPDEST PUSH0 PUSH2 0x9DB DUP4 DUP4 PUSH2 0x9B4 JUMP JUMPDEST SWAP2 POP DUP3 PUSH1 0x2 MUL DUP3 OR SWAP1 POP SWAP3 SWAP2 POP POP JUMP JUMPDEST PUSH2 0x9F4 DUP3 PUSH2 0x67F JUMP JUMPDEST PUSH8 0xFFFFFFFFFFFFFFFF DUP2 GT ISZERO PUSH2 0xA0D JUMPI PUSH2 0xA0C PUSH2 0x470 JUMP JUMPDEST JUMPDEST PUSH2 0xA17 DUP3 SLOAD PUSH2 0x81E JUMP JUMPDEST PUSH2 0xA22 DUP3 DUP3 DUP6 PUSH2 0x962 JUMP JUMPDEST PUSH0 PUSH1 0x20 SWAP1 POP PUSH1 0x1F DUP4 GT PUSH1 0x1 DUP2 EQ PUSH2 0xA53 JUMPI PUSH0 DUP5 ISZERO PUSH2 0xA41 JUMPI DUP3 DUP8 ADD MLOAD SWAP1 POP JUMPDEST PUSH2 0xA4B DUP6 DUP3 PUSH2 0x9D0 JUMP JUMPDEST DUP7 SSTORE POP PUSH2 0xAB2 JUMP JUMPDEST PUSH1 0x1F NOT DUP5 AND PUSH2 0xA61 DUP7 PUSH2 0x84E JUMP JUMPDEST PUSH0 JUMPDEST DUP3 DUP2 LT ISZERO PUSH2 0xA88 JUMPI DUP5 DUP10 ADD MLOAD DUP3 SSTORE PUSH1 0x1 DUP3 ADD SWAP2 POP PUSH1 0x20 DUP6 ADD SWAP5 POP PUSH1 0x20 DUP2 ADD SWAP1 POP PUSH2 0xA63 JUMP JUMPDEST DUP7 DUP4 LT ISZERO PUSH2 0xAA5 JUMPI DUP5 DUP10 ADD MLOAD PUSH2 0xAA1 PUSH1 0x1F DUP10 AND DUP3 PUSH2 0x9B4 JUMP JUMPDEST DUP4 SSTORE POP JUMPDEST PUSH1 0x1 PUSH1 0x2 DUP9 MUL ADD DUP9 SSTORE POP POP POP JUMPDEST POP POP POP POP POP POP JUMP JUMPDEST PUSH0 PUSH1 0xA0 DUP3 ADD SWAP1 POP DUP2 DUP2 SUB PUSH0 DUP4 ADD MSTORE PUSH2 0xAD2 DUP2 DUP9 PUSH2 0x6C1 JUMP JUMPDEST SWAP1 POP DUP2 DUP2 SUB PUSH1 0x20 DUP4 ADD MSTORE PUSH2 0xAE6 DUP2 DUP8 PUSH2 0x6C1 JUMP JUMPDEST SWAP1 POP DUP2 DUP2 SUB PUSH1 0x40 DUP4 ADD MSTORE PUSH2 0xAFA DUP2 DUP7 PUSH2 0x6C1 JUMP JUMPDEST SWAP1 POP PUSH2 0xB09 PUSH1 0x60 DUP4 ADD DUP6 PUSH2 0x729 JUMP JUMPDEST PUSH2 0xB16 PUSH1 0x80 DUP4 ADD DUP5 PUSH2 0x741 JUMP JUMPDEST SWAP7 SWAP6 POP POP POP POP POP POP JUMP JUMPDEST PUSH32 0x4365727469666963617465206E6F7420666F756E640000000000000000000000 PUSH0 DUP3 ADD MSTORE POP JUMP JUMPDEST PUSH0 PUSH2 0xB54 PUSH1 0x15 DUP4 PUSH2 0x689 JUMP JUMPDEST SWAP2 POP PUSH2 0xB5F DUP3 PUSH2 0xB20 JUMP JUMPDEST PUSH1 0x20 DUP3 ADD SWAP1 POP SWAP2 SWAP1 POP JUMP JUMPDEST PUSH0 PUSH1 0x20 DUP3 ADD SWAP1 POP DUP2 DUP2 SUB PUSH0 DUP4 ADD MSTORE PUSH2 0xB81 DUP2 PUSH2 0xB48 JUMP JUMPDEST SWAP1 POP SWAP2 SWAP1 POP JUMP INVALID LOG2 PUSH5 0x6970667358 0x22 SLT KECCAK256 PUSH7 0x5D656B0E008FE3 NOT GASLIMIT GT PUSH9 0x38ADD3772DB69104AE SHR 0x24 BLOBHASH PUSH14 0x8683142936572C64736F6C634300 ADDMOD XOR STOP CALLER "
    },
    "gasEstimates": {
      "creation": {
        "codeDepositCost": "601200",
        "executionCost": "630",
        "totalCost": "601830"
      },
      "external": {
        "addCertificate(string,string,string)": "infinite",
        "getCertificate(string)": "infinite"
      }
    },
    "methodIdentifiers": {
      "addCertificate(string,string,string)": "ac9e5760",
      "getCertificate(string)": "ed0f2e75"
    }
  },
  "abi": [
    {
      "anonymous": false,
      "inputs": [
        {
          "indexed": false,
          "internalType": "string",
          "name": "ipfsHash",
          "type": "string"
        },
        {
          "indexed": false,
          "internalType": "string",
          "name": "name",
          "type": "string"
        },
        {
          "indexed": false,
          "internalType": "string",
          "name": "description",
          "type": "string"
        },
        {
          "indexed": false,
          "internalType": "address",
          "name": "sender",
          "type": "address"
        },
        {
          "indexed": false,
          "internalType": "uint256",
          "name": "timestamp",
          "type": "uint256"
        }
      ],
      "name": "CertificateAdded",
      "type": "event"
    },
    {
      "inputs": [
        {
          "internalType": "string",
          "name": "ipfsHash",
          "type": "string"
        },
        {
          "internalType": "string",
          "name": "name",
          "type": "string"
        },
        {
          "internalType": "string",
          "name": "description",
          "type": "string"
        }
      ],
      "name": "addCertificate",
      "outputs": [],
      "stateMutability": "nonpayable",
      "type": "function"
    },
    {
      "inputs": [
        {
          "internalType": "string",
          "name": "ipfsHash",
          "type": "string"
        }
      ],
      "name": "getCertificate",
      "outputs": [
        {
          "internalType": "string",
          "name": "",
          "type": "string"
        },
        {
          "internalType": "string",
          "name": "",
          "type": "string"
        },
        {
          "internalType": "address",
          "name": "",
          "type": "address"
        },
        {
          "internalType": "uint256",
          "name": "",
          "type": "uint256"
        }
      ],
      "stateMutability": "view",
      "type": "function"
    }
  ]
}